{
  "contractName": "MyContract",
  "abi": [
    {
      "constant": true,
      "inputs": [
        {
          "internalType": "uint256",
          "name": "",
          "type": "uint256"
        }
      ],
      "name": "adoptedDogs",
      "outputs": [
        {
          "internalType": "address",
          "name": "",
          "type": "address"
        }
      ],
      "payable": false,
      "stateMutability": "view",
      "type": "function"
    },
    {
      "constant": false,
      "inputs": [
        {
          "internalType": "uint256",
          "name": "dogIndex",
          "type": "uint256"
        }
      ],
      "name": "adopted",
      "outputs": [
        {
          "internalType": "bool",
          "name": "",
          "type": "bool"
        }
      ],
      "payable": false,
      "stateMutability": "nonpayable",
      "type": "function"
    },
    {
      "constant": true,
      "inputs": [],
      "name": "getAdoptedDogs",
      "outputs": [
        {
          "internalType": "address[16]",
          "name": "",
          "type": "address[16]"
        }
      ],
      "payable": false,
      "stateMutability": "view",
      "type": "function"
    }
  ],
  "bytecode": "0x608060405234801561001057600080fd5b5061039a806100206000396000f3fe608060405234801561001057600080fd5b50600436106100415760003560e01c806303ff73bd14610046578063754b86ea146100b457806385b2b766146100fa575b600080fd5b6100726004803603602081101561005c57600080fd5b8101908080359060200190929190505050610140565b604051808273ffffffffffffffffffffffffffffffffffffffff1673ffffffffffffffffffffffffffffffffffffffff16815260200191505060405180910390f35b6100e0600480360360208110156100ca57600080fd5b8101908080359060200190929190505050610173565b604051808215151515815260200191505060405180910390f35b6101026102c1565b6040518082601060200280838360005b8381101561012d578082015181840152602081019050610112565b5050505090500191505060405180910390f35b6000816010811061014d57fe5b016000915054906101000a900473ffffffffffffffffffffffffffffffffffffffff1681565b60008082101580156101865750600f8211155b6101f8576040517f08c379a000000000000000000000000000000000000000000000000000000000815260040180806020018281038252600d8152602001807f4f5554534944452052414e47450000000000000000000000000000000000000081525060200191505060405180910390fd5b600060019050600073ffffffffffffffffffffffffffffffffffffffff166000846010811061022357fe5b0160009054906101000a900473ffffffffffffffffffffffffffffffffffffffff1673ffffffffffffffffffffffffffffffffffffffff1614156102b357336000846010811061026f57fe5b0160006101000a81548173ffffffffffffffffffffffffffffffffffffffff021916908373ffffffffffffffffffffffffffffffffffffffff1602179055506102b8565b600090505b80915050919050565b6102c9610342565b6000601080602002604051908101604052809291908260108015610338576020028201915b8160009054906101000a900473ffffffffffffffffffffffffffffffffffffffff1673ffffffffffffffffffffffffffffffffffffffff16815260200190600101908083116102ee575b5050505050905090565b60405180610200016040528060109060208202803883398082019150509050509056fea265627a7a7231582000ffe7dcdab9441909a0ed1a33c1a742169a41dcb026f50be08e152b0b300b4464736f6c63430005100032",
  "source": "pragma solidity ^0.5.0;\r\n\r\ncontract MyContract {\r\naddress[16] public adoptedDogs;\r\n\r\nfunction adopted(uint dogIndex) public returns (bool){\r\n\r\n    require(dogIndex >= 0 && dogIndex <= 15 , \"OUTSIDE RANGE\");\r\n\r\n    bool adoptedSuccess = true;\r\n\r\n    if(adoptedDogs[dogIndex] == address(0) ){\r\n        adoptedDogs[dogIndex] = msg.sender;\r\n    }else {\r\n        adoptedSuccess = false;\r\n    }\r\n\r\n    return adoptedSuccess;\r\n}\r\n\r\n\r\nfunction getAdoptedDogs() public view returns (address[16] memory){\r\n        return adoptedDogs;\r\n}\r\n\r\n}",
  "sourcePath": "C:\\Users\\migue\\Desktop\\PTF\\truffleproyecto\\contracts\\MyContract.sol",
  "compiler": {
    "name": "solc",
    "version": "0.5.16+commit.9c3226ce.Emscripten.clang"
  },
  "schemaVersion": "3.4.4",
  "updatedAt": "2022-05-13T11:50:04.800Z",
  "networkType": "ethereum",
  "devdoc": {
    "methods": {}
  },
  "userdoc": {
    "methods": {}
  }
}